:020000040000FA
:020000001028C6
:040002000034003492
:100020008316031361308F008312850186018701D7
:100030008316031300308500FF3086007F30810077
:10004000FF309500FC308700031700308800003037
:10005000890083120313051569206F20A300A400F3
:10006000A500CB20B200B300B400D82069206F20D7
:10007000A500A302031D3F282408A3004B286920E4
:100080006F20A600A502031D36282608A300A400A1
:10009000A500D82036280000CB20B400B202031DF2
:1000A00054283308B20036286920CB20B500B402AA
:1000B000031D36283508B200B300B400D820362816
:1000C000F830A7000000A70B622800000000000025
:1000D00008006430A8006020A80B6B28080000000E
:1000E0000708A0000608A10020081039031D7B287E
:1000F0000030A200C92820082039031D82280130C1
:10010000A200C92820084039031D89280230A20016
:10011000C92820088039031D90280330A200C9286F
:1001200021080139031D97280430A200C92821089D
:100130000239031D9E280530A200C9282108043970
:10014000031DA5280630A200C92821080839031D6F
:10015000AC280730A200C92821081039031DB32894
:100160000830A200C92821082039031DBA28093007
:10017000A200C92821084039031DC1280A30A20065
:10018000C92821088039031DC8280B30A200C928BE
:10019000A20122080800000007080C39B60003106D
:1001A000B60CB60C3608033C0319B6013608080035
:1001B00000003408B0000310B00D0430B007A519DA
:1001C000B00A25080739B800B7010030B802031992
:1001D000ED281C30B707B803E528CE21C321B5218F
:1001E000A7219C219121832178216A215F2151211E
:1001F00043213521080000003008043C031D052977
:1002000004308A003908002433293008053C031DD6
:100210000E2905308A003908002533293008063CAC
:10022000031D172906308A003908002633293008B3
:10023000073C031D202907308A003908002733298D
:100240003008083C031D2A2908308A00390800209C
:100250008A0133293008093C031D332909308A00FB
:10026000390800218A01B90A080000003708003E59
:10027000B900FB20AC00FB20AD00FB20AE00FB2052
:10028000AF00D921080000003708043EB900FB2068
:10029000AC00FB20AD00FB20AE00FB20AF00D9215D
:1002A000080000003708083EB900FB20AC00FB2026
:1002B000AD00FB20AE00FB20AF00D92108000000FC
:1002C0000030AC000030AD000030AE000330AF00B5
:1002D000D9210800000037080C3EB900FB20AC0013
:1002E000FB20AD00FB20AE00FB20AF00D9210800B1
:1002F00000000030AC008030AD000030AE00253092
:10030000AF00D921080000003708103EB900FB20DB
:10031000AC00FB20AD00FB20AE00FB20AF00D921DC
:10032000080000001230AC000030AD000030AE001C
:10033000E730AF00D921080000001030AC002D30AC
:10034000AD000430AE002830AF00D9210800000015
:100350003708143EB900FB20AC00FB20AD00FB20A9
:10036000AE00FB20AF00D921080000003708183E7E
:10037000B900FB20AC00FB20AD00FB20AE00FB2051
:10038000AF00D921080000000030AC006130AD00A2
:100390003030AE000B30AF00D92108000000003033
:1003A000AC000130AD000430AE001C30AF00D921EC
:1003B0000800000005110430A9002C08AB00000063
:1003C0000830AA000000AB1B8514000000000000EC
:1003D00005140000000000000510000000000000EF
:1003E00085100310AB0DAA0BE2292D08AB002E08D7
:0E03F000AD002F08AE00A90BDF29051508008F
:100800008207003420340734B03401343B341334CD
:10081000B134063491345534523434340034A7346E
:1008200084343534C3344434763416341534FC34CB
:10083000C9340034C0342034BA3400342034053490
:1008400080340A34D434AD344134AD344B34FF34C5
:10085000F23434340034A73484343534A43484344A
:10086000763416341534FC34C9340034C0342034A2
:10087000BA3400342034043420340734A1347A34B8
:1008800011347A341734FF34F23434340034A7345A
:100890008434353466340434763416341534FC34F8
:1008A000C9340034C0342034BA340034203406341F
:1008B00030340B3433343334313433343734FF345D
:1008C000F23434340034A7348434353444340434BA
:1008D000763416341534FC34C9340034C034203432
:1008E000BA3400342034053490340334C034FC343A
:1008F0000134543405345534523434340034A7347C
:100900008434353424348434763416341534FC3449
:10091000C9340034C0342034BA34003420340534AF
:10092000C0340434FC340F34C134053441345534FC
:10093000523434340034A7348434353424346434A9
:10094000763416341534FC34C9340034C0342034C1
:10095000BA34003420340434103406342F34423492
:10096000F1344234F734FF34F23434340034A734F1
:100970008434353406342434763416341534FC3457
:10098000C9340034C0342034BA340034203406343E
:10099000E0340C345634A5346134A5346B34FF3460
:1009A000F23434340034A734843435340334A4347A
:1009B000763416341534FC34C9340034C034203451
:0209C000BA3447
:100A0000820700342034063430340B341734A134D8
:100A10007134A1347B34FF34F23434340034A734DD
:100A20008434353404340034363416341534FC340C
:100A3000C9340034C0342034BA340034203404348F
:100A4000D03401343C346334C1340034C834083405
:100A5000123434340034A73484343534053440340B
:100A6000363416341534FC34C9340034C0342034E0
:100A7000BA34003420340534A0340834DD3457341B
:100A80006134F1340734FF34F23434340034A734A1
:100A90008434353404346034363416341534FC343C
:100AA000C9340034C0342034BA340034203406341D
:100AB00080340534CE347C34C134F234E734FF342E
:100AC000F23434340034A734843435340334E0341D
:100AD000363416341534FC34C9340034C034203470
:020AE000BA3426
:100C000082070034203414340034003400340034BB
:100C10000134003400340034123434340034A73446
:100C200084343534C1344434763409340834BC3423
:100C3000C9340034C0340C34BA34003420340E3497
:100C400060340834F534C2348134F534C334FF34AD
:100C5000F23434340034A73484343534A134C43409
:100C6000763409340834BC34C9340034C0340C340C
:100C7000BA34003420340A34C0340D347034A33410
:100C8000D13425348D345534523434340034A734BF
:100C90008434353462346434763409340834BC34F2
:100CA000C9340034C0340C34BA3400342034103425
:100CB0003034033485341E34B13485341F34FF346A
:100CC000F23434340034A734843435344134843439
:100CD000763409340834BC34C9340034C0340C349C
:100CE000BA34003420340E34803400342834F534DF
:100CF000C1342834F734FF34F23434340034A734A8
:100D0000843435342134C434763409340834BC3462
:100D1000C9340034C0340C34BA34003420340F34B5
:100D2000003400342834F534C1342834F734FF3427
:100D3000F23434340034A734843435342134A434C8
:100D4000763409340834BC34C9340034C0340C342B
:100D5000BA34003420340A34A034003414347A34E1
:100D6000E1340634D5345534523434340034A734A5
:100D70008434353402346434763409340834BC3471
:100D8000C9340034C0340C34BA3400342034123442
:100D90000034003414347A34E1340634D534553414
:100DA000523434340034A734843435340134643458
:100DB000763409340834BC34C9340034C0340C34BB
:020DC000BA3443
:100E00008207003420341034303403343D347034DD
:100E1000A1343D347334FF34F23434340034A73415
:100E20008434353401348034363409340834BC34E5
:100E3000C93400340C34C034BA34003420340C3497
:100E4000803406346934D034313468346334FF3448
:100E5000F23434340034A73484343534023400346A
:100E6000363409340834BC34C9340034C0340C344A
:100E7000BA34003420340E34B03407340C344934DE
:100E8000B134A534E334FF34F23434340034A734BD
:100E9000843435340134C034363409340834BC3435
:100EA000C9340034C0340C34BA3400342034103423
:100EB000F03405347F344434D13444345734FF346F
:100EC000F23434340034A73484343534013480347B
:100ED000363409340834BC34C9340034C0340C34DA
:020EE000BA3422
:1010000082070034203408340034003400340034C3
:101010000134003400340034123434340034A73442
:1010200084343534C33424347634153415343C34A4
:10103000C9340034C0341F347A34003420340534C9
:10104000C03403349534813401342034C5345534EC
:10105000523434340034A73484343534A434643402
:101060007634153415343C34C9340034C0341F345C
:101070007A34003420340434503402342D340E34A5
:10108000513460344334FF34F23434340034A73400
:10109000843435346534C4347634153415343C34F2
:1010A000C9340034C0341F347A3400342034063458
:1010B00070340B3402340C3441349B34A734FF3485
:1010C000F23434340034A734843435344334E434D3
:1010D0007634153415343C34C9340034C0341F34EC
:1010E0007A34003420340534C0340C34DD342F34E9
:1010F00011343834A9345534523434340034A734DC
:1011000084343534243444347634153415343C3442
:10111000C9340034C0341F347A34003420340634E7
:1011200000340034103462344134DD342F34FF3461
:10113000F23434340034A734843435342434243441
:101140007634153415343C34C9340034C0341F347B
:101150007A340034203404344034003408343134D8
:1011600021342434DD345534523434340034A7343B
:10117000843435340534E4347634153415343C3451
:10118000C9340034C0341F347A3400342034073476
:10119000303403343B3464345134A134CB34FF3421
:1011A000F23434340034A734843435340334843492
:1011B0007634153415343C34C9340034C0341F340B
:0211C0007A347F
:10120000820700342034063470340A34E534603404
:10121000413418349734FF34F23434340034A73472
:10122000843435340334E0343634153415343C34E6
:10123000C9340034C0341F347A34003420340534C7
:10124000003402349034B934A134F6348B34FF3492
:10125000F23434340034A734843435340534003463
:101260003634153415343C34C9340034C0341F349A
:101270007A34003420340534E0340234D134B734C5
:10128000113475348F34FF34F23434340034A734DD
:1012900084343534043440343634153415343C3415
:1012A000C9340034C0341F347A3400342034063456
:1012B000C034083499344E34B134B434EF34FF348C
:1012C000F23434340034A734843435340334A03455
:1012D0003634153415343C34C9340034C0341F342A
:0212E0007A345E
:02400E00F42399
:02401000FF3E71
:00000001FF
